:1000000012C058C01EC01DC01CC01CC01AC019C0E0
:1000100018C017C016C015C014C013C012C011C03C
:1000200010C00FC00EC011241FBECFEDCDBF20E009
:10003000A0E6B0E001C01D92A236B207E1F766D09B
:100040007CC0DECF1F920F920FB60F9211242F9318
:100050008F939F9380916000811104C081E0809311
:10006000600020C080916100882379F087E893E1E7
:100070000197F1F700C000008091610086BF809178
:100080006100815080936100EDCF16BE9FEF29E69D
:1000900088E1915020408040E1F700C000008BB71C
:1000A00080648BBF9F918F912F910F900FBE0F9007
:1000B0001F9018951F920F920FB60F9211248F93D5
:1000C0009F938BB78F7B8BBF809161008F3F79F0BF
:1000D00087E893E10197F1F700C00000809161008B
:1000E00086BF809161008F5F80936100EDCF86BFF6
:1000F000109260001CBC1DBC8EB585608EBD9F91AA
:100100008F910F900FBE0F901F9018958E9887B308
:10011000856087BB18BA8BB780648BBF85B7836057
:1001200085BF80B7816880BF83B7846083BF16BEF8
:0E01300089B7806889BF7894FFCFF894FFCF1D
:00000001FF
